:1000000012C069C068C067C066C065C064C063C014
:1000100062C061C060C05FC05EC05DC05CC05BC0EC
:100020005AC059C058C011241FBECFE5D4E0DEBF6E
:0A003000CDBF03D000C0F894FFCF4D
:10003A0011BA10BC89E189B988E18AB98EE080BD1C
:10004A0080E090E0382F88BB22B3283071F45D9BA2
:10005A00FECF24EB2CB92FEA31E74BE02150304098
:10006A004040E1F700C0000020C022B3243071F400
:10007A005D9BFECF28E52CB92FEA31E74BE02150F2
:10008A0030404040E1F700C000000FC022B32230E8
:10009A0061F45D9BFECF3CB92FEA31E74BE021507A
:1000AA0030404040E1F700C000000196811521E090
:1000BA00920711F480E090E03FED48EC20E13150E6
:0C00CA0040402040E1F700C00000BCCF27
:0200D60094CFC5
:00000001FF
