:1000000012C099C098C097C096C095C094C093C0C4
:1000100092C091C090C08FC08EC08DC08CC08BC06C
:100020008AC089C088C011241FBECFE5D4E0DEBFDE
:10003000CDBFE6E2F0E040E017C0B591A591359163
:100040002591059107FD0CC095918591EF01F92F40
:10005000E82F05900D92A217B307D9F7FE0104C04F
:100060001D92A217B307E1F7E632F40731F703D088
:0600700000C0F894FFCF70
:10007600CF93DF93CDB7DEB7A0970FB6F894DEBF68
:100086000FBECDBF81E6898395E69A8383E78B838E
:1000960085E48C832EE62D8383E68E8382E78F8329
:1000A60089E7888730E7398734E73A8739E63B8737
:1000B6003FE63C872D872BE42E879F87888B8FEF23
:1000C60087BB80EF84BB11BA88E18AB98EE080BD18
:1000D60001E682B3883099F40CC0E1E0F0E0EC0F61
:1000E600FD1FE10FF11D17FDFA9580811CD01F5FE2
:1000F60001C010E011318CF30F5F802F14D09CB13A
:1001060082B3843031F480EF85BB98BB82E6898365
:1001160001E62FE382E49FE0215080409040E1F722
:0601260000C00000D6CF6E
:0A012C005D9BFECF8CB981E00895C1
:0201360064CF94
:00000001FF
