:1000000020C0C4C0C3C0C2C0C1C0C0C0BFC0BEC089
:10001000BDC0BCC0BBC0BAC0B9C0B8C0B7C0B6C014
:10002000B5C0B4C0B3C091C0AEC092C094C096C0B9
:1000300098C09AC09CC09EC0A0C000600070000123
:100040008E0011241FBECFE5D4E0DEBFCDBFEAE3B2
:10005000F0E040E017C0B591A5913591259105914B
:1000600007FD0CC095918591EF01F92FE82F0590C0
:100070000D92A217B307D9F7FE0104C01D92A21773
:10008000B307E1F7E134F40731F703D000C0F89487
:02009000FFCFA0
:10009200CF93DF93CDB7DEB760970FB6F894DEBF8C
:1000A2000FBECDBF8FEF87BB80EF84BB11BA88E153
:1000B2008AB98EE080BD80E1E0E6F0E0DE011196D3
:1000C20001900D928A95E1F782B38823E9F32EC05D
:1000D2005D9BFECF01E010E00C0F1D1F0E0D1F1DDA
:1000E200F80180818CB918BA8081807F90E025D098
:1000F20085BBFFE121EA87E0F15020408040E1F733
:1001020000C0000018BAF80180818F7090E015D00D
:1001120085BBFFE322E48FE0F15020408040E1F70D
:1001220000C000009FEFE91AF90A02C0E12CF12C8D
:0A013200E0E1EE16F10464F2C7CF1D
:10013C008A309105F8F4FC01ED5EFF4F09948FE3D2
:10014C0090E008958BE590E008958FE490E0089599
:10015C0086E690E008958DE690E008958DE790E0B6
:10016C00089587E090E008958FE790E008958FE67A
:10017C0090E008958CEC90E0089586E090E008956E
:02018C0039CF69
:10018E0068656C6C6F2C20776F726C643030303019
:00000001FF
