:100000001BC02BC42AC429C428C427C426C425C4A1
:1000100024C423C422C421C420C41FC41EC41DC4BC
:100020001CC41BC41AC400600110800110022B0004
:10003000085C022B022C800011241FBECFE5D4E007
:10004000DEBFCDBFE6E2F0E040E017C0B591A5917C
:1000500035912591059107FD0CC095918591EF0192
:10006000F92FE82F05900D92A217B307D9F7FE01DB
:1000700004C01D92A217B307E1F7E733F40731F785
:0800800033D100C0F894FFCF5A
:1000880048656C6C6F2C20576F726C64210D0A00E8
:10009800AF92BF92CF92DF92EF92FF920F931F938E
:1000A800CF93DF9340E00BC0242F30E0FC01E20F38
:1000B800F31FDB01A20FB31F2C9120834F5F403148
:1000C80098F3FF24F394FDC04F2D50E09A01229538
:1000D8003295307F3227207F3227F9013497E80F95
:1000E800F91FD080FC01E20FF31FDF011397AC91D9
:1000F800B0E0A05FBE4F7C91DA011197A295B2954E
:10010800B07FBA27A07FBA27A80FB91F6C91405EAD
:100118005D4FEA015881472F4627452740838901CB
:100128000F5F1F4F080F191FAF0142505109EA0115
:10013800488150E0405F5E4FEA01588111964C912A
:1001480011974527E8014883B9016E5F7F4F680F13
:10015800791FAF0141505109EA01488150E0405FE1
:100168005E4FEA01588112964C9112974527EB0190
:100178004883A9014D5F5F4F480F591FCD2DD0E02F
:10018800C05FDE4FD8811396CC911397EC2EED26E5
:10019800EA01E882E9012496C80FD91F1496DC9079
:1001A8001497E081ED25E8836901E5E0CE0ED11CC6
:1001B800C80ED91E1596EC901597F80110811E25CA
:1001C800F601108389010A5F1F4F080F191F169641
:1001D800EC901697FB0160816E25F8016083F901A8
:1001E80037965F01A80EB91E17966C911797FA01FA
:1001F80040814627F5014083A901485F5F4F480FBA
:10020800591F18967C91189768816727EA016883B7
:10021800B901675F7F4F680F791F1996DC911997AD
:10022800F601C081CD27FB01C0836901FAE0CF0E3A
:10023800D11CC80ED91E1A96DC911A97F801C081F4
:10024800CD27F601C083E9012B96C80FD91F1B964D
:100258001C911B97F5010081E02FE127E883F90144
:100268003C965F01A80EB91E1C961C911C97FA01BA
:1002780040814127F5014083F9013D968F01080F20
:10028800191F1D965C911D97FB0140814527F801B8
:100298004083F9013E96BF01680F791F1E965C9155
:1002A8001E97F60140814527FB014083215F3F4FA0
:1002B800FC01E20FF31F1F963C912881232720831E
:1002C800F394FAE0FF1508F0FFCEDF91CF911F916C
:1002D8000F91FF90EF90DF90CF90BF90AF9008956F
:1002E800CF93DF93CDB7DEB7C05CD1090FB6F894D2
:1002F800DEBF0FBECDBFCE01019620EADC011D9204
:100308002A95E9F721E6298335E63A8323E72B8303
:1003180025E42C834EE64D8323E62E8322E72F83A4
:1003280029E7288750E7598754E75A8759E65B87B2
:100338005FE65C874D874BE44E873F87288B20E13B
:10034800E0E1F2E0DE01AF55BF4F01900D922A9532
:10035800E1F7FE01EF54FF4F20E1DF011D922A95DE
:10036800E9F72FEF27BB20EF24BB11BA10BC23E31A
:1003780029B928E12AB92EE020BD5ED210E00BC0D1
:10038800E1E0F0E0EC0FFD1FE10FF11D17FDFA951C
:1003980080815AD21F5F10329CF382B3883079F57E
:1003A80088E352D210E00DC0E1EAF0E0EC0FFD1F47
:1003B800E10FF11D17FDFA95808187BB808144D23A
:1003C8001F5F10318CF368E870E080E007D2BE014F
:1003D8006F547F4FCE018F559F4F2CD110E00DC029
:1003E800E1EBF0E0EC0FFD1FE10FF11D17FDFA95B1
:1003F800808187BB808128D21F5F10318CF39CB12C
:1004080082B3843019F480EF85BB98BBBFE3E2E484
:10041800FFE0B150E040F040E1F700C00000BDCF80
:10042800DF92EF92FF920F931F93CF93DF93EC012C
:10043800D880F9808D2D8F250A81EB80182F102701
:100448001E25F2D18D25812788838F2D8027ECD119
:100458008F25F82EF126F982802F8E25E5D1802769
:10046800082F01270A838D2D8E25DED18E2518278A
:100478001B83DC80FD808D2D8F250E81EF80182F4A
:1004880010271E25D1D18D2581278C838F2D80277C
:10049800CBD18F25F82EF126FD82802F8E25C4D151
:1004A8008027082F01270E838D2D8E25BDD18E25FF
:1004B80018271F83D884F9848D2D8F250A85EB840E
:1004C800182F10271E25B0D18D25812788878F2DBD
:1004D8008027AAD18F25F82EF126F986802F8E2520
:1004E800A3D18027082F01270A878D2D8E259CD11F
:1004F8008E2518271B87DC84FD848D2D8F250E857E
:10050800EF84182F10271E258FD18D2581278C87E2
:100518008F2D802789D18F25F82EF126FD86802FF3
:100528008E2582D18027082F01270E878D2D8E25B5
:100538007BD18E2518271F87DF91CF911F910F91AF
:08054800FF90EF90DF90089591
:10055000FC01908180E1689FB0011124DB01A05A69
:10056000BF4F8C91892780839481DB01AC59BF4FA9
:100570008C91892784839085DB01A859BF4F8C918A
:10058000892780879485DB01A459BF4F8C918927E7
:1005900084879181DB01AF59BF4F8C91892781837B
:1005A0009581DB01AB59BF4F8C918927858391855C
:1005B000DB01A759BF4F8C91892781879585DB0186
:1005C000A359BF4F8C91892785879281DB01AE5952
:1005D000BF4F8C91892782839681DB01AA59BF4F37
:1005E0008C91892786839285DB01A659BF4F8C9118
:1005F000892782879685DB01A259BF4F8C91892775
:1006000086879381DB01AD59BF4F8C918927838306
:100610009781DB01A959BF4F8C91892787839385E7
:10062000DB01A559BF4F8C91892783879785DB0113
:0C063000A159BF4F8C918927878708953E
:10063C001F93CF93DF93AC0180912B0281110EC0DD
:10064C0081E064C0292F30E0FB01E20FF31FDA01D7
:10065C00A20FB31F2C9120839F5F01C090E09031BB
:10066C0088F3EB01E0E6F0E08081988189278883AC
:10067C00818199818927898382819A8189278A83BB
:10068C0083819B8189278B8384819C8189278C839F
:10069C0085819D8189278D8386819E8189278E8383
:1006AC0087819F8189278F83808598858927888773
:1006BC00818599858927898782859A8589278A8763
:1006CC0083859B8589278B8784859C8589278C8747
:1006DC0085859D8589278D8786859E8589278E872B
:1006EC0087859F8589278F8711E008C0CE0112D09E
:1006FC00CE0194DE612FCE0125DF1F5F1A30B0F3DF
:10070C00CE0108D06AE0CE011DDF80E0DF91CF91F1
:04071C001F9108958C
:10072000FC01A081B0E0A05FBE4F8C918083A481CA
:10073000B0E0A05FBE4F8C918483A085B0E0A05F45
:10074000BE4F8C918087A485B0E0A05FBE4F8C9196
:100750008487A181B0E0A05FBE4F8C91A581B0E0FD
:10076000A05FBE4F9C919183A185B0E0A05FBE4F7A
:100770009C919583A585B0E0A05FBE4F9C91918729
:100780008587A281B0E0A05FBE4F9C91A681B0E0BA
:10079000A05FBE4F8C91A285B0E0A05FBE4F2C91B0
:1007A0002283A685B0E0A05FBE4F2C91268392875E
:1007B0008687A785B0E0A05FBE4F8C91A385B0E08F
:1007C000A05FBE4F9C919787A781B0E0A05FBE4F0E
:1007D0009C919387A381B0E0A05FBE4F9C919783CB
:0407E0008383089572
:1007E4006F927F928F92CF92DF92EF92FF926B0182
:1007F400E82EA82FCB0103C029D0A82DC3013C01AA
:100804008A2E2FEF621A720A820AFC0184918111E6
:10081400F3CFA82DC3018C199D090197FF90EF9088
:0C082400DF90CF908F907F906F90089530
:10083000882324F4880F9BE189270895880F089561
:10084000BC0180E690E028DC81E080932B020895D3
:0A0850005D9BFECF8CB981E0089596
:02085A00D2CBFF
:10085C00637C777BF26B6FC53001672BFED7AB7671
:10086C00CA82C97DFA5947F0ADD4A2AF9CA472C01C
:10087C00B7FD9326363FF7CC34A5E5F171D8311589
:10088C0004C723C31896059A071280E2EB27B275AA
:10089C0009832C1A1B6E5AA0523BD6B329E32F8422
:1008AC0053D100ED20FCB15B6ACBBE394A4C58CF1A
:1008BC00D0EFAAFB434D338545F9027F503C9FA8EE
:1008CC0051A3408F929D38F5BCB6DA2110FFF3D2BC
:1008DC00CD0C13EC5F974417C4A77E3D645D197370
:1008EC0060814FDC222A908846EEB814DE5E0BDB6A
:1008FC00E0323A0A4906245CC2D3AC629195E479A1
:10090C00E7C8376D8DD54EA96C56F4EA657AAE08FA
:10091C00BA78252E1CA6B4C6E8DD741F4BBD8B8A95
:10092C00703EB5664803F60E613557B986C11D9EFB
:10093C00E1F8981169D98E949B1E87E9CE5528DF72
:10094C008CA1890DBFE6426841992D0FB054BB169E
:10095C0068656C6C6F2C20776F726C643030303043
:0B096C008D01020408102040801B36A3
:00000001FF
