:1000000025C004C403C402C401C400C4FFC3FEC3AA
:10001000FDC3FCC3FBC3FAC3F9C3F8C3F7C3F6C3FC
:10002000F5C3F4C3F3C3C1C3DEC3C2C3C4C3C6C3F1
:10003000C8C3CAC3CCC3CEC3D0C300600110800103
:1000400010023B00080E023B023C800011241FBE40
:10005000CFE5D4E0DEBFCDBFEAE3F0E040E017C07B
:10006000B591A59135912591059107FD0CC095910C
:100070008591EF01F92FE82F05900D92A217B30794
:10008000D9F7FE0104C01D92A217B307E1F7EB34C4
:0C009000F40731F7BFD100C0F894FFCF97
:10009C00AF92BF92CF92DF92EF92FF920F931F938A
:1000AC00CF93DF9340E00BC0242F30E0FC01E20F34
:1000BC00F31FDB01A20FB31F2C9120834F5F403144
:1000CC0098F3FF24F394FDC04F2D50E09A01229534
:1000DC003295307F3227207F3227F9013497E80F91
:1000EC00F91FD080FC01E20FF31FDF011397AC91D5
:1000FC00B0E0A05FBE4F7C91DA011197A295B2954A
:10010C00B07FBA27A07FBA27A80FB91F6C91405DAA
:10011C005D4FEA015881472F4627452740838901C7
:10012C000F5F1F4F080F191FAF0142505109EA0111
:10013C00488150E0405F5E4FEA01588111964C9126
:10014C0011974527E8014883B9016E5F7F4F680F0F
:10015C00791FAF0141505109EA01488150E0405FDD
:10016C005E4FEA01588112964C9112974527EB018C
:10017C004883A9014D5F5F4F480F591FCD2DD0E02B
:10018C00C05FDE4FD8811396CC911397EC2EED26E1
:10019C00EA01E882E9012496C80FD91F1496DC9075
:1001AC001497E081ED25E8836901E5E0CE0ED11CC2
:1001BC00C80ED91E1596EC901597F80110811E25C6
:1001CC00F601108389010A5F1F4F080F191F16963D
:1001DC00EC901697FB0160816E25F8016083F901A4
:1001EC0037965F01A80EB91E17966C911797FA01F6
:1001FC0040814627F5014083A901485F5F4F480FB6
:10020C00591F18967C91189768816727EA016883B3
:10021C00B901675F7F4F680F791F1996DC911997A9
:10022C00F601C081CD27FB01C0836901FAE0CF0E36
:10023C00D11CC80ED91E1A96DC911A97F801C081F0
:10024C00CD27F601C083E9012B96C80FD91F1B9649
:10025C001C911B97F5010081E02FE127E883F90140
:10026C003C965F01A80EB91E1C961C911C97FA01B6
:10027C0040814127F5014083F9013D968F01080F1C
:10028C00191F1D965C911D97FB0140814527F801B4
:10029C004083F9013E96BF01680F791F1E965C9151
:1002AC001E97F60140814527FB014083215F3F4F9C
:1002BC00FC01E20FF31F1F963C912881232720831A
:1002CC00F394FAE0FF1508F0FFCEDF91CF911F9168
:1002DC000F91FF90EF90DF90CF90BF90AF9008956B
:1002EC00DF92EF92FF920F931F93CF93DF93EC016A
:1002FC00D880F9808D2D8F250A81EB80182F10273F
:10030C001E256ED28D25812788838F2D802768D25C
:10031C008F25F82EF126F982802F8E2561D2802729
:10032C00082F01270A838D2D8E255AD28E2518274A
:10033C001B83DC80FD808D2D8F250E81EF80182F87
:10034C0010271E254DD28D2581278C838F2D80273C
:10035C0047D28F25F82EF126FD82802F8E2540D294
:10036C008027082F01270E838D2D8E2539D28E25BF
:10037C0018271F83D884F9848D2D8F250A85EB844B
:10038C00182F10271E252CD28D25812788878F2D7D
:10039C00802726D28F25F82EF126F986802F8E25E0
:1003AC001FD28027082F01270A878D2D8E2518D262
:1003BC008E2518271B87DC84FD848D2D8F250E85BB
:1003CC00EF84182F10271E250BD28D2581278C87A3
:1003DC008F2D802705D28F25F82EF126FD86802FB4
:1003EC008E25FED18027082F01270E878D2D8E2577
:1003FC00F7D18E2518271F87DF91CF911F910F9171
:08040C00FF90EF90DF900895CE
:10041400CF93DF93CDB7DEB7E0970FB6F894DEBF86
:100424000FBECDBF80EF81BB80E1E0E1F2E0DE01F1
:10043400119601900D928A95E1F780E1E0E2F2E0F5
:10044400DE01519601900D928A95E1F717BA14BA1C
:10045400CE010196D1D182B3882309F449C0BE01EB
:100464006F5D7F4FCE014196C3D018BA80E185BB42
:100474008AE489A38BE48AA3E12CF12C2CC018BA5A
:1004840001E210E00C0F1D1F0E0D1F1DF8018081ED
:10049400807F90E081D185BBFFE322E48FE0F150BF
:1004A40020408040E1F700C0000018BAF8018081C4
:1004B4008F7090E071D185BBFFE322E48FE0F150AF
:1004C40020408040E1F700C00000F80180818CB931
:1004D400FFEFEF1AFF0A20E1E216F10480F28FE346
:1004E40092E4EFE081509040E040E1F700C000006A
:1004F400FFE121EA87E0F15020408040E1F700C0AD
:040504000000A9CF7B
:10050800FC01908180E1689FB0011124DB01A05AB1
:10051800BF4F8C91892780839481DB01AC59BF4FF1
:100528008C91892784839085DB01A859BF4F8C91D2
:10053800892780879485DB01A459BF4F8C9189272F
:1005480084879181DB01AF59BF4F8C9189278183C3
:100558009581DB01AB59BF4F8C91892785839185A4
:10056800DB01A759BF4F8C91892781879585DB01CE
:10057800A359BF4F8C91892785879281DB01AE599A
:10058800BF4F8C91892782839681DB01AA59BF4F7F
:100598008C91892786839285DB01A659BF4F8C9160
:1005A800892782879685DB01A259BF4F8C918927BD
:1005B80086879381DB01AD59BF4F8C91892783834F
:1005C8009781DB01A959BF4F8C9189278783938530
:1005D800DB01A559BF4F8C91892783879785DB015C
:0C05E800A159BF4F8C9189278787089587
:1005F4001F93CF93DF93AC0180913B0281110EC016
:1006040081E064C0292F30E0FB01E20FF31FDA011F
:10061400A20FB31F2C9120839F5F01C090E0903103
:1006240088F3EB01E0E6F0E08081988189278883F4
:10063400818199818927898382819A8189278A8303
:1006440083819B8189278B8384819C8189278C83E7
:1006540085819D8189278D8386819E8189278E83CB
:1006640087819F8189278F838085988589278887BB
:10067400818599858927898782859A8589278A87AB
:1006840083859B8589278B8784859C8589278C878F
:1006940085859D8589278D8786859E8589278E8773
:1006A40087859F8589278F8711E008C0CE0112D0E6
:1006B400CE011ADE612FCE0125DF1F5F1A30B0F3A1
:1006C400CE0108D06AE0CE011DDF80E0DF91CF913A
:0406D4001F910895D5
:1006D800FC01A081B0E0A05FBE4F8C918083A48113
:1006E800B0E0A05FBE4F8C918483A085B0E0A05F8E
:1006F800BE4F8C918087A485B0E0A05FBE4F8C91DF
:100708008487A181B0E0A05FBE4F8C91A581B0E045
:10071800A05FBE4F9C919183A185B0E0A05FBE4FC2
:100728009C919583A585B0E0A05FBE4F9C91918771
:100738008587A281B0E0A05FBE4F9C91A681B0E002
:10074800A05FBE4F8C91A285B0E0A05FBE4F2C91F8
:100758002283A685B0E0A05FBE4F2C9126839287A6
:100768008687A785B0E0A05FBE4F8C91A385B0E0D7
:10077800A05FBE4F9C919787A781B0E0A05FBE4F56
:100788009C919387A381B0E0A05FBE4F9C91978313
:0407980083830895BA
:10079C008A309105F8F4FC01ED5EFF4F09948FE36C
:1007AC0090E008958BE590E008958FE490E0089533
:1007BC0086E690E008958DE690E008958DE790E050
:1007CC00089587E090E008958FE790E008958FE614
:1007DC0090E008958CEC90E0089586E090E0089508
:1007EC00882324F4880F9BE189270895880F0895A6
:1007FC00BC0180E690E04CDC81E080933B020895E4
:02080C00F9CB26
:10080E00637C777BF26B6FC53001672BFED7AB76BF
:10081E00CA82C97DFA5947F0ADD4A2AF9CA472C06A
:10082E00B7FD9326363FF7CC34A5E5F171D83115D7
:10083E0004C723C31896059A071280E2EB27B275F8
:10084E0009832C1A1B6E5AA0523BD6B329E32F8470
:10085E0053D100ED20FCB15B6ACBBE394A4C58CF68
:10086E00D0EFAAFB434D338545F9027F503C9FA83C
:10087E0051A3408F929D38F5BCB6DA2110FFF3D20A
:10088E00CD0C13EC5F974417C4A77E3D645D1973BE
:10089E0060814FDC222A908846EEB814DE5E0BDBB8
:1008AE00E0323A0A4906245CC2D3AC629195E479EF
:1008BE00E7C8376D8DD54EA96C56F4EA657AAE0849
:1008CE00BA78252E1CA6B4C6E8DD741F4BBD8B8AE4
:1008DE00703EB5664803F60E613557B986C11D9E4A
:1008EE00E1F8981169D98E949B1E87E9CE5528DFC1
:1008FE008CA1890DBFE6426841992D0FB054BB16ED
:10090E00616573456E6372797074696F6E4B65794C
:10091E0068656C6C6F2C20776F726C643030303081
:0B092E008D01020408102040801B36E1
:00000001FF
