:1000000012C068C067C066C065C064C063C062C01B
:1000100061C060C05FC05EC05DC05CC05BC05AC0F4
:1000200059C058C057C011241FBECFE5D4E0DEBF71
:0A003000CDBF03D000C0F894FFCF4D
:10003A0010BC83E389B988E18AB98EE880BD5D9BEB
:10004A00FECF84EB8CB92FEF80E792E021508040FD
:10005A009040E1F700C000005D9BFECF8CE18CB9B7
:10006A005D9BFECF83E78CB95D9BFECF85E68CB99D
:10007A005D9BFECF8EE68CB95D9BFECF89E68CB97F
:10008A005D9BFECF8FE68CB95D9BFECF82E78CB974
:10009A005D9BFECF80E28CB95D9BFECF84E68CB976
:1000AA005D9BFECF85E68CB95D9BFECF83E78CB95D
:1000BA005D9BFECF89E68CB95D9BFECF87E68CB946
:0A00CA005D9BFECF8EE68CB9FFCFE0
:0200D40095CFC6
:00000001FF
