:1000000012C02CC02BC02AC029C028C027C026C0BF
:1000100025C024C023C022C021C020C01FC01EC0D4
:100020001DC01CC01BC011241FBECFE5D4E0DEBF25
:10003000CDBF12E0A0E6B0E0EEE1FAE002C005902C
:100040000D92AE38B107D9F723E0AEE8B2E001C0B7
:100050001D92A43CB207E1F7A1D4DFC4D1CF80E068
:100060000895FC0180819181982789279827909392
:1000700061008093600080E008958FD480E008954F
:1000800088D480E00895CF93DF93D82FC92F83D4ED
:10009000A89A8D2F9C2F7ED4A8988D2F9C2F7CD42E
:1000A0004D2F5C2F60E182E7C2D080E0DF91CF91DD
:1000B00008950F931F93CF93DF93D82FC92F6BD43D
:1000C00010E000E08091600090916100081719072E
:1000D00070F08D2F9C2F60D44D2F5C2F60E182E754
:1000E000A6D080E0DF91CF911F910F910895A89A3B
:1000F0008D2F9C2F4FD4A8980F5F1F4FE3CF81E027
:100100000895282F80E046EA615008F40895E22F10
:10011000F92F9191892728E030E087FF08C0880FE8
:10012000842721503109C9F72E2F9F2FEDCF880F3B
:10013000F8CF9C01FA01DB0150E040E04217530781
:100140001CF090E080E008958C9111969C9111979D
:1001500060ED690F6A3078F4608390ED980F9A3003
:10016000D0F48295807F9081892B80834F5F5F4F91
:1001700031961296E3CF6FEB690F663018F4975300
:100180009083EBCF6FE9690F663018F081E090E063
:1001900008959755F5CF9FEB980F963040F487530D
:1001A000990B64E0880F991F6A95E1F7DCCF9FE90E
:1001B000980F963058F78755990BF3CFDB01609174
:1001C000EE027091EF0260317105D4F4A03CB105EC
:1001D000B8F496E0969FF001979FF00D1124E25736
:1001E000FD4F8083B283A1834383548325836F5F54
:1001F0007F4F7093EF026093EE0290E080E00895ED
:1002000081E090E0089520E0D9CF4FE750E070E022
:1002100060E086E7F8DF45E551E070E060E087E701
:10022000F2DF42E451E070E060E089E7ECCFFF925A
:100230000F931F93CF93DF93162FF42E052F63D1C7
:10024000CF2DD02FCE01810F911D8C01C017D1076A
:1002500039F48AE0DF91CF911F910F91FF9053C144
:10026000E991E295EF70F0E0E359FD4F80814BD1C9
:10027000FE013197E081EF70F0E0E359FD4F80819E
:1002800042D1E4CFCF93DF930F92CDB7DEB7809109
:10029000EE028983AE014F5F5F4F61E082E7C7DF07
:1002A00080E00F90DF91CF910895CF93DF93CDB78A
:1002B000DEB7E0970FB6F894DEBF0FBECDBF20913A
:1002C000EE023091EF02B901772740E056E0842F2B
:1002D00090E08617970794F0622F660F620FAE01C9
:1002E0004F5F5F4F82E7A3DF80E0E0960FB6F894A0
:1002F000DEBF0FBECDBFDF91CF910895FC01EE0FA1
:10030000FF1FE80FF91FA1E0B0E0AC0FBD1FEA0F1F
:10031000FB1F589FD001599FB00D1124A257BD4F0C
:100320008C91808311968C911197818315968C9175
:1003300082834F5FCCCFAF92BF92CF92DF92EF928A
:10034000FF920F931F93CF93DF93CDB7DEB7C154C6
:10035000D2400FB6F894DEBF0FBECDBFD0D04091D3
:10036000EE025091EF022EE832E010E000E00417B8
:100370001507ACF040175107C9F4CF5BDD4F0FB63E
:10038000F894DEBF0FBECDBFDF91CF911F910F91CB
:10039000FF90EF90DF90CF90BF90AF9008952A5FCD
:1003A0003F4FF90136979081981376C026E0209F41
:1003B000C001219F900D11249C0122573D4F7901CE
:1003C000D90115968C9180FF1DC0CF57DE4F188242
:1003D000C158D14094D0898392D08A83AE014F57BF
:1003E0005E4FBE016F5F7F4F81E090E0A2DE892B00
:1003F00021F6CF57DE4F8881C158D14090E0F701F8
:10040000928381839E012F5F3F4F5901F12CE12C94
:1004100026E0209FC001219F900D1124DC01A157EF
:10042000BD4F6D01D6018D919C91880F991FE816E3
:10043000F906A8F164D08A3019F08D3009F09DCF0B
:1004400026E0209FC001219F900D11248C010257AE
:100450001D4FF801F180AE014F575E4FBE016F5F37
:100460007F4F8F2D928165DE892B09F086CFD801D1
:100470001396ED91FC916F2DCE018F579E4F0995EC
:10048000CF5BDD4F8883C154D240AE014F5B5D4FDF
:1004900061E08AE7CCDE71CF0F5F1F4F68CF2FD0AE
:1004A0008A3009F46ACF8D3009F467CFF501819362
:1004B0005F01FFEFEF1AFF0AB5CF88E18AB98BE041
:1004C00089B90895CF93DF9300D0CDB7DEB7FC0193
:1004D0007A83698390E080E029813A81281739077F
:1004E00011F481E005C05F9B08C08CB1808380E07F
:1004F0000F900F90DF91CF9108950196EDCF5F9B04
:10050000FECF8CB108955D9BFECF8CB90895FF920C
:100510000F931F93CF93DF93C091F002D091F1021C
:10052000E2E0F3E0DF0188818C93898111968C935E
:1005300011978A8112968C9312978B8113968C93C4
:1005400013972496149683E0A231B80761F744E02C
:1005500050E060E070E0A4858585F684B7858A0167
:100560009B010370112722273327012B022B032B1A
:1005700009F5C82FD0E0C359DE4F9881CF2DD0E0C8
:10058000C359DE4F8881CB2FD0E0C359DE4FF880AE
:10059000B0E0A359BE4FBC918A019B01A2E0369501
:1005A000279517950795AA95D1F70E591F4FE80182
:1005B000A881A9273081A327A08B21812827218BFF
:1005C00092819F25928B83818B27838B4F5F5F4F17
:1005D0006F4F7F4F34964C3251056105710509F01C
:1005E000BACFDF91CF911F910F91FF9008951F9384
:1005F000CF93DF932091B2033091B30340E1849F06
:10060000C0011124B901605F7F4FDC01AE5FBC4FB8
:10061000F90140E051911D91EF0121975127588335
:100620004F5F4430B9F72C5F3F4F049626173707CA
:1006300061F7DF91CF911F9108958091B20390915E
:10064000B303AC014C5F5F4FDC0124E0EC91F0E0C0
:10065000E359FE4F30813C93215014962111F6CF7F
:1006600001968417950781F70895E091B203F09100
:10067000B303818195819183918595839585918738
:1006800085878281928592838287868196859683EB
:1006900086878381978593839385978797819387AF
:1006A00087830895982F881F8827881F2BE1829FB2
:1006B000802D1124990F892708958091B20390917C
:1006C000B303AC014C5F5F4FDC0124E0EC91F0E040
:1006D000E359FF4F30813C93215014962111F6CFFE
:1006E00001968417950781F70895E091B203F09180
:1006F000B3038585918595879581918791819583B0
:100700008183828192859283828786819685968372
:100710008687838197819383938597839785938732
:10072000878708959F92AF92BF92CF92DF92EF9208
:10073000FF920F931F93CF93DF9380E058DFCC2479
:10074000C3947BDF92DFC091B203D091B3037E01EB
:1007500080E1E80EF11CA880D9808A2D8D250A81C0
:100760001B81902E9126B92CB8269CDF8A258B25DB
:1007700088838D2D802796DFD826DB24D982892D8A
:1007800091DF08270B250A838A2D81278BDF182705
:100790001B251B832496EC16FD06E9F68C2D27DF1E
:1007A000C3948AE0C812CDCF48DF5FDF8AE0DF91D3
:1007B000CF911F910F91FF90EF90DF90CF90BF905E
:1007C000AF909F9014CFFB01DC01CB0140962191AB
:1007D0002D93E817F907D9F708959093F1028093C4
:1007E000F00295CEBC018093B2037093B30382EF05
:1007F00092E0E9DF97CF0F931F93CF93DF938B01A5
:10080000D42FC52FBC01842F952FDDDFD093B203E9
:10081000C093B3030093F0021093F10278DEDF91EE
:10082000CF911F910F917ECF2F923F924F925F9267
:100830006F927F928F929F92AF92BF92CF92DF92F0
:10084000EF92FF920F931F93CF93DF9300D000D0CE
:1008500000D0CDB7DEB76A8379836A01BC01CA01D3
:10086000B2DFD092B303C092B2032A812093F00288
:1008700089818093F1024BDE8AE0B9DE99E09983A9
:10088000F6017096FC83EB8330DF17DF8981AFDEE2
:100890007601F7013080418052802380832D02DF72
:1008A0008D8300DF8E83FEDEA82E842DFBDE182FC5
:1008B000F9DE982EF7DEB82E852DF4DE782EF2DEE6
:1008C000882EF0DE082F822DEDDE8A83EBDE682E87
:1008D000E9DE982F8D81FE818F278A2581278B2540
:1008E000882580278927842585258225F70180830F
:1008F0008A2D812789258B2587258027862589278D
:100900008325852582258183FE81FA25FB257F2687
:10091000872480262A8182268926832484242824E9
:10092000F70122828D818A2589258B2580278227C0
:10093000862589273826432454245382F4E0EF0E79
:10094000F11C8B819C818E159F0509F0A2CF9981A6
:1009500091509983911198CFC8DEAFDE80E0269642
:100960000FB6F894DEBF0FBECDBFDF91CF911F91C0
:100970000F91FF90EF90DF90CF90BF90AF909F903E
:100980008F907F906F905F904F903F902F902FCEE1
:10099000089523CF27CF089508950895CDB7DEB7E2
:1009A00060970FB6F894DEBF0FBECDBF80E1EDE7D4
:1009B000F2E0DE01119601900D928A95E1F77DDD5E
:1009C000A09AE6DFCE010196E4DF1FDC40E450E0B0
:1009D00060E170E08BE617DC43E450E060E170E03A
:1009E00080E711DC4FE250E070E060E088E70BDC6C
:1009F00021E04DE350E062E170E08DE6DFDB41E3B2
:100A000050E062E070E083E7FEDB49E550E060E142
:0E0A100070E086E6F8DB8FDCFECFF894FFCFB7
:100A1E000A008D01020408102040801B3652096A1C
:100A2E00D53036A538BF40A39E81F3D7FB7CE33982
:100A3E00829B2FFF87348E4344C4DEE9CB547B94D4
:100A4E0032A6C2233DEE4C950B42FAC34E082EA1A0
:100A5E006628D924B2765BA2496D8BD12572F8F641
:100A6E006486689816D4A45CCC5D65B6926C7048AA
:100A7E0050FDEDB9DA5E154657A78D9D8490D8AB23
:100A8E00008CBCD30AF7E45805B8B34506D02C1E2B
:100A9E008FCA3F0F02C1AFBD0301138A6B3A91118A
:100AAE00414F67DCEA97F2CFCEF0B4E67396AC74A2
:100ABE0022E7AD3585E2F937E81C75DF6E47F11A8E
:100ACE00711D29C5896FB7620EAA18BE1BFC563E52
:100ADE004BC6D279209ADBC0FE78CD5AF41FDDA822
:100AEE00338807C731B11210592780EC5F60517FF0
:100AFE00A919B54A0D2DE57A9F93C99CEFA0E03B4D
:100B0E004DAE2AF5B0C8EBBB3C83539961172B044D
:100B1E007EBA77D626E169146355210C7D637C7706
:100B2E007BF26B6FC53001672BFED7AB76CA82C9DD
:100B3E007DFA5947F0ADD4A2AF9CA472C0B7FD9315
:100B4E0026363FF7CC34A5E5F171D8311504C7230D
:100B5E00C31896059A071280E2EB27B27509832C0B
:100B6E001A1B6E5AA0523BD6B329E32F8453D100E1
:100B7E00ED20FCB15B6ACBBE394A4C58CFD0EFAA00
:100B8E00FB434D338545F9027F503C9FA851A3404E
:100B9E008F929D38F5BCB6DA2110FFF3D2CD0C132F
:100BAE00EC5F974417C4A77E3D645D197360814F57
:100BBE00DC222A908846EEB814DE5E0BDBE0323A79
:100BCE000A4906245CC2D3AC629195E479E7C83732
:100BDE006D8DD54EA96C56F4EA657AAE08BA7825B5
:100BEE002E1CA6B4C6E8DD741F4BBD8B8A703EB5B5
:100BFE00664803F60E613557B986C11D9EE1F89819
:100C0E001169D98E949B1E87E9CE5528DF8CA18958
:100C1E000DBFE6426841992D0FB054BB16303132EC
:100C2E00333435363738394142434445462B7E15E9
:0E0C3E001628AED2A6ABF7158809CF4F3C00A2
:00000001FF
