:1000000016C06CC06BC06AC069C068C067C066C0FB
:1000100065C064C063C062C061C060C05FC05EC0D4
:100020005DC05CC05BC0006000610000DE001124A8
:100030001FBECFE5D4E0DEBFCDBFE6E2F0E040E09A
:1000400017C0B591A59135912591059107FD0CC07B
:1000500095918591EF01F92FE82F05900D92A21748
:10006000B307D9F7FE0104C01D92A217B307E1F749
:0E007000ED32F40731F703D000C0F894FFCF53
:10007E008FEF87BB80EF84BB11BA88E18AB98EE01F
:10008E0080BD82B3883069F488E31CD08091600013
:10009E0019D0C0E004C08091600014D0CF5FC23090
:1000AE00D4F39CB182B3843019F480EF85BB98BB36
:1000BE002FE382E49FE0215080409040E1F700C0A2
:0400CE000000DFCF80
:0A00D2005D9BFECF8CB981E008951C
:0200DC0091CFC2
:0100DE0039E8
:00000001FF
